{
  "_format": "hh-sol-artifact-1",
  "contractName": "EnergyTrade",
  "sourceName": "contracts/EnergyTrade.sol",
  "abi": [
    {
      "inputs": [],
      "stateMutability": "nonpayable",
      "type": "constructor"
    },
    {
      "anonymous": false,
      "inputs": [
        {
          "indexed": true,
          "internalType": "address",
          "name": "owner",
          "type": "address"
        },
        {
          "indexed": true,
          "internalType": "address",
          "name": "spender",
          "type": "address"
        },
        {
          "indexed": false,
          "internalType": "uint256",
          "name": "value",
          "type": "uint256"
        }
      ],
      "name": "Approval",
      "type": "event"
    },
    {
      "anonymous": false,
      "inputs": [
        {
          "indexed": true,
          "internalType": "address",
          "name": "from",
          "type": "address"
        },
        {
          "indexed": true,
          "internalType": "address",
          "name": "to",
          "type": "address"
        },
        {
          "indexed": false,
          "internalType": "uint256",
          "name": "value",
          "type": "uint256"
        }
      ],
      "name": "Transfer",
      "type": "event"
    },
    {
      "inputs": [],
      "name": "EnergyUnitPrice_matic",
      "outputs": [
        {
          "internalType": "uint256",
          "name": "",
          "type": "uint256"
        }
      ],
      "stateMutability": "view",
      "type": "function"
    },
    {
      "inputs": [],
      "name": "EnergyUnitPrice_usd",
      "outputs": [
        {
          "internalType": "uint256",
          "name": "",
          "type": "uint256"
        }
      ],
      "stateMutability": "view",
      "type": "function"
    },
    {
      "inputs": [
        {
          "internalType": "uint256",
          "name": "",
          "type": "uint256"
        }
      ],
      "name": "Staked_Energy_Balance",
      "outputs": [
        {
          "internalType": "uint256",
          "name": "",
          "type": "uint256"
        }
      ],
      "stateMutability": "view",
      "type": "function"
    },
    {
      "inputs": [],
      "name": "activeConsumer",
      "outputs": [
        {
          "internalType": "address",
          "name": "",
          "type": "address"
        }
      ],
      "stateMutability": "view",
      "type": "function"
    },
    {
      "inputs": [],
      "name": "activeEnergyNeed",
      "outputs": [
        {
          "internalType": "uint256",
          "name": "",
          "type": "uint256"
        }
      ],
      "stateMutability": "view",
      "type": "function"
    },
    {
      "inputs": [],
      "name": "activeProducer",
      "outputs": [
        {
          "internalType": "address",
          "name": "",
          "type": "address"
        }
      ],
      "stateMutability": "view",
      "type": "function"
    },
    {
      "inputs": [
        {
          "internalType": "address",
          "name": "prosumer",
          "type": "address"
        }
      ],
      "name": "addProsumer",
      "outputs": [],
      "stateMutability": "nonpayable",
      "type": "function"
    },
    {
      "inputs": [
        {
          "internalType": "uint256",
          "name": "unitEnergyPrice",
          "type": "uint256"
        },
        {
          "internalType": "uint256",
          "name": "excessEnergyToken",
          "type": "uint256"
        }
      ],
      "name": "advert",
      "outputs": [
        {
          "internalType": "uint256",
          "name": "",
          "type": "uint256"
        }
      ],
      "stateMutability": "nonpayable",
      "type": "function"
    },
    {
      "inputs": [
        {
          "internalType": "address",
          "name": "owner",
          "type": "address"
        },
        {
          "internalType": "address",
          "name": "spender",
          "type": "address"
        }
      ],
      "name": "allowance",
      "outputs": [
        {
          "internalType": "uint256",
          "name": "",
          "type": "uint256"
        }
      ],
      "stateMutability": "view",
      "type": "function"
    },
    {
      "inputs": [
        {
          "internalType": "address",
          "name": "spender",
          "type": "address"
        },
        {
          "internalType": "uint256",
          "name": "amount",
          "type": "uint256"
        }
      ],
      "name": "approve",
      "outputs": [
        {
          "internalType": "bool",
          "name": "",
          "type": "bool"
        }
      ],
      "stateMutability": "nonpayable",
      "type": "function"
    },
    {
      "inputs": [
        {
          "internalType": "address",
          "name": "account",
          "type": "address"
        }
      ],
      "name": "balanceOf",
      "outputs": [
        {
          "internalType": "uint256",
          "name": "",
          "type": "uint256"
        }
      ],
      "stateMutability": "view",
      "type": "function"
    },
    {
      "inputs": [
        {
          "internalType": "uint256",
          "name": "producerID",
          "type": "uint256"
        },
        {
          "internalType": "uint256",
          "name": "energy_need",
          "type": "uint256"
        }
      ],
      "name": "bid",
      "outputs": [],
      "stateMutability": "payable",
      "type": "function"
    },
    {
      "inputs": [
        {
          "internalType": "address",
          "name": "to",
          "type": "address"
        },
        {
          "internalType": "uint256",
          "name": "value",
          "type": "uint256"
        }
      ],
      "name": "burn",
      "outputs": [],
      "stateMutability": "nonpayable",
      "type": "function"
    },
    {
      "inputs": [
        {
          "internalType": "uint256",
          "name": "energyBurned",
          "type": "uint256"
        }
      ],
      "name": "burnEnergy",
      "outputs": [],
      "stateMutability": "nonpayable",
      "type": "function"
    },
    {
      "inputs": [],
      "name": "decimals",
      "outputs": [
        {
          "internalType": "uint8",
          "name": "",
          "type": "uint8"
        }
      ],
      "stateMutability": "view",
      "type": "function"
    },
    {
      "inputs": [
        {
          "internalType": "address",
          "name": "spender",
          "type": "address"
        },
        {
          "internalType": "uint256",
          "name": "subtractedValue",
          "type": "uint256"
        }
      ],
      "name": "decreaseAllowance",
      "outputs": [
        {
          "internalType": "bool",
          "name": "",
          "type": "bool"
        }
      ],
      "stateMutability": "nonpayable",
      "type": "function"
    },
    {
      "inputs": [],
      "name": "escrowAccount",
      "outputs": [
        {
          "internalType": "address",
          "name": "",
          "type": "address"
        }
      ],
      "stateMutability": "view",
      "type": "function"
    },
    {
      "inputs": [],
      "name": "getLatestPrice",
      "outputs": [
        {
          "internalType": "int256",
          "name": "",
          "type": "int256"
        }
      ],
      "stateMutability": "view",
      "type": "function"
    },
    {
      "inputs": [
        {
          "internalType": "address",
          "name": "spender",
          "type": "address"
        },
        {
          "internalType": "uint256",
          "name": "addedValue",
          "type": "uint256"
        }
      ],
      "name": "increaseAllowance",
      "outputs": [
        {
          "internalType": "bool",
          "name": "",
          "type": "bool"
        }
      ],
      "stateMutability": "nonpayable",
      "type": "function"
    },
    {
      "inputs": [
        {
          "internalType": "address",
          "name": "to",
          "type": "address"
        },
        {
          "internalType": "uint256",
          "name": "value",
          "type": "uint256"
        }
      ],
      "name": "mint",
      "outputs": [],
      "stateMutability": "nonpayable",
      "type": "function"
    },
    {
      "inputs": [],
      "name": "mySetUnitPrice_Matic",
      "outputs": [
        {
          "internalType": "uint256",
          "name": "",
          "type": "uint256"
        }
      ],
      "stateMutability": "view",
      "type": "function"
    },
    {
      "inputs": [],
      "name": "mySetUnitPrice_USD",
      "outputs": [
        {
          "internalType": "uint256",
          "name": "",
          "type": "uint256"
        }
      ],
      "stateMutability": "view",
      "type": "function"
    },
    {
      "inputs": [],
      "name": "name",
      "outputs": [
        {
          "internalType": "string",
          "name": "",
          "type": "string"
        }
      ],
      "stateMutability": "view",
      "type": "function"
    },
    {
      "inputs": [],
      "name": "owner",
      "outputs": [
        {
          "internalType": "address",
          "name": "",
          "type": "address"
        }
      ],
      "stateMutability": "view",
      "type": "function"
    },
    {
      "inputs": [
        {
          "internalType": "uint256",
          "name": "energyProduced",
          "type": "uint256"
        }
      ],
      "name": "produceEnergy",
      "outputs": [],
      "stateMutability": "nonpayable",
      "type": "function"
    },
    {
      "inputs": [
        {
          "internalType": "uint256",
          "name": "",
          "type": "uint256"
        }
      ],
      "name": "producer_Set_Energy_Price_Matic",
      "outputs": [
        {
          "internalType": "uint256",
          "name": "",
          "type": "uint256"
        }
      ],
      "stateMutability": "view",
      "type": "function"
    },
    {
      "inputs": [
        {
          "internalType": "uint256",
          "name": "",
          "type": "uint256"
        }
      ],
      "name": "producer_Set_Energy_Price_USD",
      "outputs": [
        {
          "internalType": "uint256",
          "name": "",
          "type": "uint256"
        }
      ],
      "stateMutability": "view",
      "type": "function"
    },
    {
      "inputs": [
        {
          "internalType": "uint256",
          "name": "",
          "type": "uint256"
        }
      ],
      "name": "prosumerAddress",
      "outputs": [
        {
          "internalType": "address",
          "name": "",
          "type": "address"
        }
      ],
      "stateMutability": "view",
      "type": "function"
    },
    {
      "inputs": [],
      "name": "prosumerCounter",
      "outputs": [
        {
          "internalType": "uint256",
          "name": "",
          "type": "uint256"
        }
      ],
      "stateMutability": "view",
      "type": "function"
    },
    {
      "inputs": [
        {
          "internalType": "address",
          "name": "",
          "type": "address"
        }
      ],
      "name": "prosumerID",
      "outputs": [
        {
          "internalType": "uint256",
          "name": "",
          "type": "uint256"
        }
      ],
      "stateMutability": "view",
      "type": "function"
    },
    {
      "inputs": [],
      "name": "removeProsumer",
      "outputs": [],
      "stateMutability": "nonpayable",
      "type": "function"
    },
    {
      "inputs": [],
      "name": "symbol",
      "outputs": [
        {
          "internalType": "string",
          "name": "",
          "type": "string"
        }
      ],
      "stateMutability": "view",
      "type": "function"
    },
    {
      "inputs": [],
      "name": "totalSupply",
      "outputs": [
        {
          "internalType": "uint256",
          "name": "",
          "type": "uint256"
        }
      ],
      "stateMutability": "view",
      "type": "function"
    },
    {
      "inputs": [],
      "name": "tradeStatus",
      "outputs": [
        {
          "internalType": "bool",
          "name": "",
          "type": "bool"
        }
      ],
      "stateMutability": "view",
      "type": "function"
    },
    {
      "inputs": [
        {
          "internalType": "address",
          "name": "to",
          "type": "address"
        },
        {
          "internalType": "uint256",
          "name": "amount",
          "type": "uint256"
        }
      ],
      "name": "transfer",
      "outputs": [
        {
          "internalType": "bool",
          "name": "",
          "type": "bool"
        }
      ],
      "stateMutability": "nonpayable",
      "type": "function"
    },
    {
      "inputs": [
        {
          "internalType": "address",
          "name": "from",
          "type": "address"
        },
        {
          "internalType": "address",
          "name": "to",
          "type": "address"
        },
        {
          "internalType": "uint256",
          "name": "amount",
          "type": "uint256"
        }
      ],
      "name": "transferFrom",
      "outputs": [
        {
          "internalType": "bool",
          "name": "",
          "type": "bool"
        }
      ],
      "stateMutability": "nonpayable",
      "type": "function"
    },
    {
      "inputs": [],
      "name": "viewEscrowBalance",
      "outputs": [
        {
          "internalType": "uint256",
          "name": "",
          "type": "uint256"
        },
        {
          "internalType": "uint256",
          "name": "",
          "type": "uint256"
        }
      ],
      "stateMutability": "view",
      "type": "function"
    },
    {
      "inputs": [],
      "name": "viewMaticBalance",
      "outputs": [
        {
          "internalType": "uint256",
          "name": "",
          "type": "uint256"
        }
      ],
      "stateMutability": "view",
      "type": "function"
    },
    {
      "inputs": [],
      "name": "withdrawFunds",
      "outputs": [],
      "stateMutability": "nonpayable",
      "type": "function"
    }
  ],
  "bytecode": "0x60806040523480156200001157600080fd5b506040518060400160405280600b81526020017f456e65727920546f6b656e0000000000000000000000000000000000000000008152506040518060400160405280600481526020017f554e49540000000000000000000000000000000000000000000000000000000081525081600390805190602001906200009692919062000197565b508060049080519060200190620000af92919062000197565b50505073d0d5e3db44de05e9f294bb0a3beeaf030de24ada600560006101000a81548173ffffffffffffffffffffffffffffffffffffffff021916908373ffffffffffffffffffffffffffffffffffffffff16021790555033600a60006101000a81548173ffffffffffffffffffffffffffffffffffffffff021916908373ffffffffffffffffffffffffffffffffffffffff160217905550600060068190555030600b60006101000a81548173ffffffffffffffffffffffffffffffffffffffff021916908373ffffffffffffffffffffffffffffffffffffffff160217905550620002ac565b828054620001a59062000276565b90600052602060002090601f016020900481019282620001c9576000855562000215565b82601f10620001e457805160ff191683800117855562000215565b8280016001018555821562000215579182015b8281111562000214578251825591602001919060010190620001f7565b5b50905062000224919062000228565b5090565b5b808211156200024357600081600090555060010162000229565b5090565b7f4e487b7100000000000000000000000000000000000000000000000000000000600052602260045260246000fd5b600060028204905060018216806200028f57607f821691505b60208210811415620002a657620002a562000247565b5b50919050565b6132ec80620002bc6000396000f3fe60806040526004361061022f5760003560e01c80637fb400f91161012e5780639fe6fb35116100ab578063cec6ffab1161006f578063cec6ffab14610884578063dd62ed3e146108af578063df80c1a4146108ec578063e514317614610917578063fe3ac8c11461092e5761022f565b80639fe6fb3514610777578063a457c2d7146107a2578063a9059cbb146107df578063b32cad3e1461081c578063b571567a146108475761022f565b80638fac6371116100f25780638fac63711461067e57806395d89b41146106bb57806396acb79a146106e65780639971e5ac146107235780639dc29fac1461074e5761022f565b80637fb400f9146105975780638b0d5154146105c05780638bda812f146105fd5780638da5cb5b146106285780638e15f473146106535761022f565b8063313ce567116101bc578063507361901161018057806350736190146104bf57806354b3b018146104e8578063598647f81461051357806366d87fa91461052f57806370a082311461055a5761022f565b8063313ce567146103d75780633628c33314610402578063395093511461042e57806340c10f191461046b5780634ec9dd8d146104945761022f565b80630e264f80116102035780630e264f8014610302578063108934ec1461032d57806318160ddd1461035857806323b872dd1461038357806324600fc3146103c05761022f565b80621cfdce1461023457806306fdde0314610271578063095ea7b31461029c5780630b6d83e2146102d9575b600080fd5b34801561024057600080fd5b5061025b60048036038101906102569190612399565b61096b565b60405161026891906123df565b60405180910390f35b34801561027d57600080fd5b50610286610983565b6040516102939190612493565b60405180910390f35b3480156102a857600080fd5b506102c360048036038101906102be91906124e1565b610a15565b6040516102d0919061253c565b60405180910390f35b3480156102e557600080fd5b5061030060048036038101906102fb9190612557565b610a38565b005b34801561030e57600080fd5b50610317610ac8565b60405161032491906123df565b60405180910390f35b34801561033957600080fd5b50610342610b22565b60405161034f91906123df565b60405180910390f35b34801561036457600080fd5b5061036d610b28565b60405161037a91906123df565b60405180910390f35b34801561038f57600080fd5b506103aa60048036038101906103a59190612584565b610b32565b6040516103b7919061253c565b60405180910390f35b3480156103cc57600080fd5b506103d5610b61565b005b3480156103e357600080fd5b506103ec610de6565b6040516103f991906125f3565b60405180910390f35b34801561040e57600080fd5b50610417610def565b60405161042592919061260e565b60405180910390f35b34801561043a57600080fd5b50610455600480360381019061045091906124e1565b610e26565b604051610462919061253c565b60405180910390f35b34801561047757600080fd5b50610492600480360381019061048d91906124e1565b610e5d565b005b3480156104a057600080fd5b506104a9610e6b565b6040516104b691906123df565b60405180910390f35b3480156104cb57600080fd5b506104e660048036038101906104e19190612399565b610f47565b005b3480156104f457600080fd5b506104fd61108c565b60405161050a9190612646565b60405180910390f35b61052d60048036038101906105289190612661565b6110b2565b005b34801561053b57600080fd5b506105446112e8565b6040516105519190612646565b60405180910390f35b34801561056657600080fd5b50610581600480360381019061057c9190612399565b61130e565b60405161058e91906123df565b60405180910390f35b3480156105a357600080fd5b506105be60048036038101906105b99190612557565b611356565b005b3480156105cc57600080fd5b506105e760048036038101906105e29190612557565b6113e6565b6040516105f491906123df565b60405180910390f35b34801561060957600080fd5b506106126113fe565b60405161061f91906123df565b60405180910390f35b34801561063457600080fd5b5061063d61141d565b60405161064a9190612646565b60405180910390f35b34801561065f57600080fd5b50610668611443565b60405161067591906126ba565b60405180910390f35b34801561068a57600080fd5b506106a560048036038101906106a09190612557565b6114f3565b6040516106b29190612646565b60405180910390f35b3480156106c757600080fd5b506106d0611526565b6040516106dd9190612493565b60405180910390f35b3480156106f257600080fd5b5061070d60048036038101906107089190612661565b6115b8565b60405161071a91906123df565b60405180910390f35b34801561072f57600080fd5b50610738611707565b60405161074591906123df565b60405180910390f35b34801561075a57600080fd5b50610775600480360381019061077091906124e1565b61170d565b005b34801561078357600080fd5b5061078c61171b565b60405161079991906123df565b60405180910390f35b3480156107ae57600080fd5b506107c960048036038101906107c491906124e1565b611721565b6040516107d6919061253c565b60405180910390f35b3480156107eb57600080fd5b50610806600480360381019061080191906124e1565b611798565b604051610813919061253c565b60405180910390f35b34801561082857600080fd5b506108316117bb565b60405161083e919061253c565b60405180910390f35b34801561085357600080fd5b5061086e60048036038101906108699190612557565b61189f565b60405161087b91906123df565b60405180910390f35b34801561089057600080fd5b506108996118b7565b6040516108a69190612646565b60405180910390f35b3480156108bb57600080fd5b506108d660048036038101906108d191906126d5565b6118dd565b6040516108e391906123df565b60405180910390f35b3480156108f857600080fd5b50610901611964565b60405161090e91906123df565b60405180910390f35b34801561092357600080fd5b5061092c61196a565b005b34801561093a57600080fd5b5061095560048036038101906109509190612557565b611a3a565b60405161096291906123df565b60405180910390f35b600f6020528060005260406000206000915090505481565b60606003805461099290612744565b80601f01602080910402602001604051908101604052809291908181526020018280546109be90612744565b8015610a0b5780601f106109e057610100808354040283529160200191610a0b565b820191906000526020600020905b8154815290600101906020018083116109ee57829003601f168201915b5050505050905090565b600080610a20611a52565b9050610a2d818585611a5a565b600191505092915050565b6000600f60003373ffffffffffffffffffffffffffffffffffffffff1673ffffffffffffffffffffffffffffffffffffffff168152602001908152602001600020541415610abb576040517f08c379a0000000000000000000000000000000000000000000000000000000008152600401610ab2906127c2565b60405180910390fd5b610ac53382611c25565b50565b600060116000600f60003373ffffffffffffffffffffffffffffffffffffffff1673ffffffffffffffffffffffffffffffffffffffff16815260200190815260200160002054815260200190815260200160002054905090565b60075481565b6000600254905090565b600080610b3d611a52565b9050610b4a858285611d85565b610b55858585611e11565b60019150509392505050565b600a60009054906101000a900473ffffffffffffffffffffffffffffffffffffffff1673ffffffffffffffffffffffffffffffffffffffff163373ffffffffffffffffffffffffffffffffffffffff1614610bf1576040517f08c379a0000000000000000000000000000000000000000000000000000000008152600401610be89061282e565b60405180910390fd5b610bf96117bb565b610c38576040517f08c379a0000000000000000000000000000000000000000000000000000000008152600401610c2f9061289a565b60405180910390fd5b610c89600b60009054906101000a900473ffffffffffffffffffffffffffffffffffffffff16600c60009054906101000a900473ffffffffffffffffffffffffffffffffffffffff16600954611e11565b6000600d60009054906101000a900473ffffffffffffffffffffffffffffffffffffffff1673ffffffffffffffffffffffffffffffffffffffff1647604051610cd1906128eb565b60006040518083038185875af1925050503d8060008114610d0e576040519150601f19603f3d011682016040523d82523d6000602084013e610d13565b606091505b5050905080610d57576040517f08c379a0000000000000000000000000000000000000000000000000000000008152600401610d4e9061294c565b60405180910390fd5b60006009819055506000600c60006101000a81548173ffffffffffffffffffffffffffffffffffffffff021916908373ffffffffffffffffffffffffffffffffffffffff1602179055506000600d60006101000a81548173ffffffffffffffffffffffffffffffffffffffff021916908373ffffffffffffffffffffffffffffffffffffffff16021790555050565b60006012905090565b60008047610e1e600b60009054906101000a900473ffffffffffffffffffffffffffffffffffffffff1661130e565b915091509091565b600080610e31611a52565b9050610e52818585610e4385896118dd565b610e4d919061299b565b611a5a565b600191505092915050565b610e678282611c25565b5050565b600080600f60003373ffffffffffffffffffffffffffffffffffffffff1673ffffffffffffffffffffffffffffffffffffffff168152602001908152602001600020541415610eef576040517f08c379a0000000000000000000000000000000000000000000000000000000008152600401610ee6906127c2565b60405180910390fd5b60106000600f60003373ffffffffffffffffffffffffffffffffffffffff1673ffffffffffffffffffffffffffffffffffffffff16815260200190815260200160002054815260200190815260200160002054905090565b600a60009054906101000a900473ffffffffffffffffffffffffffffffffffffffff1673ffffffffffffffffffffffffffffffffffffffff163373ffffffffffffffffffffffffffffffffffffffff1614610fd7576040517f08c379a0000000000000000000000000000000000000000000000000000000008152600401610fce9061282e565b60405180910390fd5b60066000815480929190610fea906129f1565b919050555080600e6000600654815260200190815260200160002060006101000a81548173ffffffffffffffffffffffffffffffffffffffff021916908373ffffffffffffffffffffffffffffffffffffffff160217905550600654600f60008373ffffffffffffffffffffffffffffffffffffffff1673ffffffffffffffffffffffffffffffffffffffff1681526020019081526020016000208190555050565b600b60009054906101000a900473ffffffffffffffffffffffffffffffffffffffff1681565b6000600f60003373ffffffffffffffffffffffffffffffffffffffff1673ffffffffffffffffffffffffffffffffffffffff168152602001908152602001600020541415611135576040517f08c379a000000000000000000000000000000000000000000000000000000000815260040161112c906127c2565b60405180910390fd5b80600981905550600081601060008581526020019081526020016000205461115d9190612a3a565b9050803410156111a2576040517f08c379a000000000000000000000000000000000000000000000000000000000815260040161119990612ae0565b60405180910390fd5b60126000848152602001908152602001600020548211156111f8576040517f08c379a00000000000000000000000000000000000000000000000000000000081526004016111ef90612b72565b60405180910390fd5b33600c60006101000a81548173ffffffffffffffffffffffffffffffffffffffff021916908373ffffffffffffffffffffffffffffffffffffffff160217905550600e600084815260200190815260200160002060009054906101000a900473ffffffffffffffffffffffffffffffffffffffff16600d60006101000a81548173ffffffffffffffffffffffffffffffffffffffff021916908373ffffffffffffffffffffffffffffffffffffffff1602179055508160126000858152602001908152602001600020546112cc9190612b92565b6012600085815260200190815260200160002081905550505050565b600c60009054906101000a900473ffffffffffffffffffffffffffffffffffffffff1681565b60008060008373ffffffffffffffffffffffffffffffffffffffff1673ffffffffffffffffffffffffffffffffffffffff168152602001908152602001600020549050919050565b6000600f60003373ffffffffffffffffffffffffffffffffffffffff1673ffffffffffffffffffffffffffffffffffffffff1681526020019081526020016000205414156113d9576040517f08c379a00000000000000000000000000000000000000000000000000000000081526004016113d0906127c2565b60405180910390fd5b6113e33382612092565b50565b60106020528060005260406000206000915090505481565b60003373ffffffffffffffffffffffffffffffffffffffff1631905090565b600a60009054906101000a900473ffffffffffffffffffffffffffffffffffffffff1681565b600080600560009054906101000a900473ffffffffffffffffffffffffffffffffffffffff1673ffffffffffffffffffffffffffffffffffffffff1663feaf968c6040518163ffffffff1660e01b815260040160a06040518083038186803b1580156114ae57600080fd5b505afa1580156114c2573d6000803e3d6000fd5b505050506040513d601f19601f820116820180604052508101906114e69190612c49565b5050509150508091505090565b600e6020528060005260406000206000915054906101000a900473ffffffffffffffffffffffffffffffffffffffff1681565b60606004805461153590612744565b80601f016020809104026020016040519081016040528092919081815260200182805461156190612744565b80156115ae5780601f10611583576101008083540402835291602001916115ae565b820191906000526020600020905b81548152906001019060200180831161159157829003601f168201915b5050505050905090565b600080600f60003373ffffffffffffffffffffffffffffffffffffffff1673ffffffffffffffffffffffffffffffffffffffff16815260200190815260200160002054141561163c576040517f08c379a0000000000000000000000000000000000000000000000000000000008152600401611633906127c2565b60405180910390fd5b611668600b60009054906101000a900473ffffffffffffffffffffffffffffffffffffffff1683611798565b506000600f60003373ffffffffffffffffffffffffffffffffffffffff1673ffffffffffffffffffffffffffffffffffffffff1681526020019081526020016000205490508360116000838152602001908152602001600020819055506116ce84612269565b60106000838152602001908152602001600020819055508260126000838152602001908152602001600020819055508091505092915050565b60085481565b6117178282612092565b5050565b60065481565b60008061172c611a52565b9050600061173a82866118dd565b90508381101561177f576040517f08c379a000000000000000000000000000000000000000000000000000000000815260040161177690612d36565b60405180910390fd5b61178c8286868403611a5a565b60019250505092915050565b6000806117a3611a52565b90506117b0818585611e11565b600191505092915050565b6000600a60009054906101000a900473ffffffffffffffffffffffffffffffffffffffff1673ffffffffffffffffffffffffffffffffffffffff163373ffffffffffffffffffffffffffffffffffffffff161461184d576040517f08c379a00000000000000000000000000000000000000000000000000000000081526004016118449061282e565b60405180910390fd5b6000471415801561188957506000611886600b60009054906101000a900473ffffffffffffffffffffffffffffffffffffffff1661130e565b14155b15611897576001905061189c565b600090505b90565b60126020528060005260406000206000915090505481565b600d60009054906101000a900473ffffffffffffffffffffffffffffffffffffffff1681565b6000600160008473ffffffffffffffffffffffffffffffffffffffff1673ffffffffffffffffffffffffffffffffffffffff16815260200190815260200160002060008373ffffffffffffffffffffffffffffffffffffffff1673ffffffffffffffffffffffffffffffffffffffff16815260200190815260200160002054905092915050565b60095481565b6000600e6000600654815260200190815260200160002060009054906101000a900473ffffffffffffffffffffffffffffffffffffffff169050600e6000600654815260200190815260200160002060006101000a81549073ffffffffffffffffffffffffffffffffffffffff0219169055600f60008273ffffffffffffffffffffffffffffffffffffffff1673ffffffffffffffffffffffffffffffffffffffff1681526020019081526020016000206000905560066000815480929190611a3290612d56565b919050555050565b60116020528060005260406000206000915090505481565b600033905090565b600073ffffffffffffffffffffffffffffffffffffffff168373ffffffffffffffffffffffffffffffffffffffff161415611aca576040517f08c379a0000000000000000000000000000000000000000000000000000000008152600401611ac190612df2565b60405180910390fd5b600073ffffffffffffffffffffffffffffffffffffffff168273ffffffffffffffffffffffffffffffffffffffff161415611b3a576040517f08c379a0000000000000000000000000000000000000000000000000000000008152600401611b3190612e84565b60405180910390fd5b80600160008573ffffffffffffffffffffffffffffffffffffffff1673ffffffffffffffffffffffffffffffffffffffff16815260200190815260200160002060008473ffffffffffffffffffffffffffffffffffffffff1673ffffffffffffffffffffffffffffffffffffffff168152602001908152602001600020819055508173ffffffffffffffffffffffffffffffffffffffff168373ffffffffffffffffffffffffffffffffffffffff167f8c5be1e5ebec7d5bd14f71427d1e84f3dd0314c0f7b2291e5b200ac8c7c3b92583604051611c1891906123df565b60405180910390a3505050565b600073ffffffffffffffffffffffffffffffffffffffff168273ffffffffffffffffffffffffffffffffffffffff161415611c95576040517f08c379a0000000000000000000000000000000000000000000000000000000008152600401611c8c90612ef0565b60405180910390fd5b611ca16000838361232c565b8060026000828254611cb3919061299b565b92505081905550806000808473ffffffffffffffffffffffffffffffffffffffff1673ffffffffffffffffffffffffffffffffffffffff1681526020019081526020016000206000828254611d08919061299b565b925050819055508173ffffffffffffffffffffffffffffffffffffffff16600073ffffffffffffffffffffffffffffffffffffffff167fddf252ad1be2c89b69c2b068fc378daa952ba7f163c4a11628f55a4df523b3ef83604051611d6d91906123df565b60405180910390a3611d8160008383612331565b5050565b6000611d9184846118dd565b90507fffffffffffffffffffffffffffffffffffffffffffffffffffffffffffffffff8114611e0b5781811015611dfd576040517f08c379a0000000000000000000000000000000000000000000000000000000008152600401611df490612f5c565b60405180910390fd5b611e0a8484848403611a5a565b5b50505050565b600073ffffffffffffffffffffffffffffffffffffffff168373ffffffffffffffffffffffffffffffffffffffff161415611e81576040517f08c379a0000000000000000000000000000000000000000000000000000000008152600401611e7890612fee565b60405180910390fd5b600073ffffffffffffffffffffffffffffffffffffffff168273ffffffffffffffffffffffffffffffffffffffff161415611ef1576040517f08c379a0000000000000000000000000000000000000000000000000000000008152600401611ee890613080565b60405180910390fd5b611efc83838361232c565b60008060008573ffffffffffffffffffffffffffffffffffffffff1673ffffffffffffffffffffffffffffffffffffffff16815260200190815260200160002054905081811015611f82576040517f08c379a0000000000000000000000000000000000000000000000000000000008152600401611f7990613112565b60405180910390fd5b8181036000808673ffffffffffffffffffffffffffffffffffffffff1673ffffffffffffffffffffffffffffffffffffffff16815260200190815260200160002081905550816000808573ffffffffffffffffffffffffffffffffffffffff1673ffffffffffffffffffffffffffffffffffffffff1681526020019081526020016000206000828254612015919061299b565b925050819055508273ffffffffffffffffffffffffffffffffffffffff168473ffffffffffffffffffffffffffffffffffffffff167fddf252ad1be2c89b69c2b068fc378daa952ba7f163c4a11628f55a4df523b3ef8460405161207991906123df565b60405180910390a361208c848484612331565b50505050565b600073ffffffffffffffffffffffffffffffffffffffff168273ffffffffffffffffffffffffffffffffffffffff161415612102576040517f08c379a00000000000000000000000000000000000000000000000000000000081526004016120f9906131a4565b60405180910390fd5b61210e8260008361232c565b60008060008473ffffffffffffffffffffffffffffffffffffffff1673ffffffffffffffffffffffffffffffffffffffff16815260200190815260200160002054905081811015612194576040517f08c379a000000000000000000000000000000000000000000000000000000000815260040161218b90613236565b60405180910390fd5b8181036000808573ffffffffffffffffffffffffffffffffffffffff1673ffffffffffffffffffffffffffffffffffffffff1681526020019081526020016000208190555081600260008282546121eb9190612b92565b92505081905550600073ffffffffffffffffffffffffffffffffffffffff168373ffffffffffffffffffffffffffffffffffffffff167fddf252ad1be2c89b69c2b068fc378daa952ba7f163c4a11628f55a4df523b3ef8460405161225091906123df565b60405180910390a361226483600084612331565b505050565b600080600f60003373ffffffffffffffffffffffffffffffffffffffff1673ffffffffffffffffffffffffffffffffffffffff1681526020019081526020016000205414156122ed576040517f08c379a00000000000000000000000000000000000000000000000000000000081526004016122e4906127c2565b60405180910390fd5b8160088190555060006122fe611443565b90506305f5e10081846123119190613285565b61231b9190612a3a565b600781905550600754915050919050565b505050565b505050565b600080fd5b600073ffffffffffffffffffffffffffffffffffffffff82169050919050565b60006123668261233b565b9050919050565b6123768161235b565b811461238157600080fd5b50565b6000813590506123938161236d565b92915050565b6000602082840312156123af576123ae612336565b5b60006123bd84828501612384565b91505092915050565b6000819050919050565b6123d9816123c6565b82525050565b60006020820190506123f460008301846123d0565b92915050565b600081519050919050565b600082825260208201905092915050565b60005b83811015612434578082015181840152602081019050612419565b83811115612443576000848401525b50505050565b6000601f19601f8301169050919050565b6000612465826123fa565b61246f8185612405565b935061247f818560208601612416565b61248881612449565b840191505092915050565b600060208201905081810360008301526124ad818461245a565b905092915050565b6124be816123c6565b81146124c957600080fd5b50565b6000813590506124db816124b5565b92915050565b600080604083850312156124f8576124f7612336565b5b600061250685828601612384565b9250506020612517858286016124cc565b9150509250929050565b60008115159050919050565b61253681612521565b82525050565b6000602082019050612551600083018461252d565b92915050565b60006020828403121561256d5761256c612336565b5b600061257b848285016124cc565b91505092915050565b60008060006060848603121561259d5761259c612336565b5b60006125ab86828701612384565b93505060206125bc86828701612384565b92505060406125cd868287016124cc565b9150509250925092565b600060ff82169050919050565b6125ed816125d7565b82525050565b600060208201905061260860008301846125e4565b92915050565b600060408201905061262360008301856123d0565b61263060208301846123d0565b9392505050565b6126408161235b565b82525050565b600060208201905061265b6000830184612637565b92915050565b6000806040838503121561267857612677612336565b5b6000612686858286016124cc565b9250506020612697858286016124cc565b9150509250929050565b6000819050919050565b6126b4816126a1565b82525050565b60006020820190506126cf60008301846126ab565b92915050565b600080604083850312156126ec576126eb612336565b5b60006126fa85828601612384565b925050602061270b85828601612384565b9150509250929050565b7f4e487b7100000000000000000000000000000000000000000000000000000000600052602260045260246000fd5b6000600282049050600182168061275c57607f821691505b602082108114156127705761276f612715565b5b50919050565b7f53656e646572206973206e6f742050726f73756d657200000000000000000000600082015250565b60006127ac601683612405565b91506127b782612776565b602082019050919050565b600060208201905081810360008301526127db8161279f565b9050919050565b7f53656e646572206973206e6f74204f776e657200000000000000000000000000600082015250565b6000612818601383612405565b9150612823826127e2565b602082019050919050565b600060208201905081810360008301526128478161280b565b9050919050565b7f547261646520537461747573206973206e656761746976650000000000000000600082015250565b6000612884601883612405565b915061288f8261284e565b602082019050919050565b600060208201905081810360008301526128b381612877565b9050919050565b600081905092915050565b50565b60006128d56000836128ba565b91506128e0826128c5565b600082019050919050565b60006128f6826128c8565b9150819050919050565b7f43616c6c206661696c6564000000000000000000000000000000000000000000600082015250565b6000612936600b83612405565b915061294182612900565b602082019050919050565b6000602082019050818103600083015261296581612929565b9050919050565b7f4e487b7100000000000000000000000000000000000000000000000000000000600052601160045260246000fd5b60006129a6826123c6565b91506129b1836123c6565b9250827fffffffffffffffffffffffffffffffffffffffffffffffffffffffffffffffff038211156129e6576129e561296c565b5b828201905092915050565b60006129fc826123c6565b91507fffffffffffffffffffffffffffffffffffffffffffffffffffffffffffffffff821415612a2f57612a2e61296c565b5b600182019050919050565b6000612a45826123c6565b9150612a50836123c6565b9250817fffffffffffffffffffffffffffffffffffffffffffffffffffffffffffffffff0483118215151615612a8957612a8861296c565b5b828202905092915050565b7f4469646e27742073656e6420656e6f7567682100000000000000000000000000600082015250565b6000612aca601383612405565b9150612ad582612a94565b602082019050919050565b60006020820190508181036000830152612af981612abd565b9050919050565b7f53656c65637465642050726f647563657220646f206e6f74206861766520656e60008201527f6f75676820456e657267792042616c616e636500000000000000000000000000602082015250565b6000612b5c603383612405565b9150612b6782612b00565b604082019050919050565b60006020820190508181036000830152612b8b81612b4f565b9050919050565b6000612b9d826123c6565b9150612ba8836123c6565b925082821015612bbb57612bba61296c565b5b828203905092915050565b600069ffffffffffffffffffff82169050919050565b612be581612bc6565b8114612bf057600080fd5b50565b600081519050612c0281612bdc565b92915050565b612c11816126a1565b8114612c1c57600080fd5b50565b600081519050612c2e81612c08565b92915050565b600081519050612c43816124b5565b92915050565b600080600080600060a08688031215612c6557612c64612336565b5b6000612c7388828901612bf3565b9550506020612c8488828901612c1f565b9450506040612c9588828901612c34565b9350506060612ca688828901612c34565b9250506080612cb788828901612bf3565b9150509295509295909350565b7f45524332303a2064656372656173656420616c6c6f77616e63652062656c6f7760008201527f207a65726f000000000000000000000000000000000000000000000000000000602082015250565b6000612d20602583612405565b9150612d2b82612cc4565b604082019050919050565b60006020820190508181036000830152612d4f81612d13565b9050919050565b6000612d61826123c6565b91506000821415612d7557612d7461296c565b5b600182039050919050565b7f45524332303a20617070726f76652066726f6d20746865207a65726f2061646460008201527f7265737300000000000000000000000000000000000000000000000000000000602082015250565b6000612ddc602483612405565b9150612de782612d80565b604082019050919050565b60006020820190508181036000830152612e0b81612dcf565b9050919050565b7f45524332303a20617070726f766520746f20746865207a65726f20616464726560008201527f7373000000000000000000000000000000000000000000000000000000000000602082015250565b6000612e6e602283612405565b9150612e7982612e12565b604082019050919050565b60006020820190508181036000830152612e9d81612e61565b9050919050565b7f45524332303a206d696e7420746f20746865207a65726f206164647265737300600082015250565b6000612eda601f83612405565b9150612ee582612ea4565b602082019050919050565b60006020820190508181036000830152612f0981612ecd565b9050919050565b7f45524332303a20696e73756666696369656e7420616c6c6f77616e6365000000600082015250565b6000612f46601d83612405565b9150612f5182612f10565b602082019050919050565b60006020820190508181036000830152612f7581612f39565b9050919050565b7f45524332303a207472616e736665722066726f6d20746865207a65726f20616460008201527f6472657373000000000000000000000000000000000000000000000000000000602082015250565b6000612fd8602583612405565b9150612fe382612f7c565b604082019050919050565b6000602082019050818103600083015261300781612fcb565b9050919050565b7f45524332303a207472616e7366657220746f20746865207a65726f206164647260008201527f6573730000000000000000000000000000000000000000000000000000000000602082015250565b600061306a602383612405565b91506130758261300e565b604082019050919050565b600060208201905081810360008301526130998161305d565b9050919050565b7f45524332303a207472616e7366657220616d6f756e742065786365656473206260008201527f616c616e63650000000000000000000000000000000000000000000000000000602082015250565b60006130fc602683612405565b9150613107826130a0565b604082019050919050565b6000602082019050818103600083015261312b816130ef565b9050919050565b7f45524332303a206275726e2066726f6d20746865207a65726f2061646472657360008201527f7300000000000000000000000000000000000000000000000000000000000000602082015250565b600061318e602183612405565b915061319982613132565b604082019050919050565b600060208201905081810360008301526131bd81613181565b9050919050565b7f45524332303a206275726e20616d6f756e7420657863656564732062616c616e60008201527f6365000000000000000000000000000000000000000000000000000000000000602082015250565b6000613220602283612405565b915061322b826131c4565b604082019050919050565b6000602082019050818103600083015261324f81613213565b9050919050565b7f4e487b7100000000000000000000000000000000000000000000000000000000600052601260045260246000fd5b6000613290826123c6565b915061329b836123c6565b9250826132ab576132aa613256565b5b82820490509291505056fea26469706673582212201636964ad7ba07af41bf54cc3c49137620d6c59740f0885e1d8f3f46808e64b964736f6c63430008080033",
  "linkReferences": {},
  "deployedLinkReferences": {}
}